:020000040800F2
:100000000000042039030008F1030008F903000888
:10001000010400080904000811040008190400087C
:1000200000000000000000000000000021040008A3
:10003000290400080000000031040008CD0C00086D
:10004000390400083904000839040008390400089C
:10005000390400083904000839040008390400088C
:10006000390400083904000839040008390400087C
:10007000390400083904000839040008390400086C
:1000800039040008390400083904000891240008E4
:10009000A9240008D92500083904000839040008FB
:1000A0003904000839040008A11F000839040008B9
:1000B000390400083904000839040008390400082C
:1000C000390400083904000839040008390400081C
:1000D0000000000039040008390400083904000851
:1000E00039040008390400083904000839040008FC
:1000F00039040008390400083904000839040008EC
:1001000039040008390400083904000839040008DB
:1001100039040008390400083904000839040008CB
:1001200039040008390400083904000839040008BB
:1001300039040008390400083904000839040008AB
:10014000390400083904000839040008390400089B
:10015000390400083904000839040008390400088B
:1001600039040008E11C00083904000839040008BB
:10017000390400083904000839040008390400086B
:10018000390400083904000839040008390400085B
:10019000390400083904000839040008390400084B
:1001A000390400083904000839040008390400083B
:1001B000390400083904000839040008390400082B
:1001C000390400083904000839040008390400081B
:1001D0003904000839040008000000003904000850
:1001E0003904000839040008000000000000000085
:1001F0003904000800000000000000003904000875
:10020000390400083904000839040008000000001F
:100210000000000039040008000000003904000854
:1002200039040008390400083904000839040008BA
:1002300039040008390400083904000839040008AA
:0C024000390400083904000839040008E3
:10024C00844641EA000313F0030349D1403A23D317
:10025C000B6803604B6843608B688360CB68C3603A
:10026C000B6903614B6943618B698361CB69C36122
:10027C000B6A03624B6A43628B6A8362CB6AC3620A
:10028C000B6B03634B6B43638B6B8363CB6BC363F2
:10029C0040304031403ADBD230320BD30B68036034
:1002AC004B6843608B688360CB68C360103010313F
:1002BC00103AF3D20C3205D351F8043B40F8043B0E
:1002CC00043AF9D2043208D0D2071CBF11F8013B12
:1002DC0000F8013B01D30B8803806046704700BFD8
:1002EC00082A13D38B07B1D010F00303AED0C3F19F
:1002FC000403D21ADB071CBF11F8013B00F8013BC9
:10030C00A4D331F8023B20F8023B9FE7043AD9D33F
:10031C00013A11F8013B00F8013BF9D20B7803705C
:10032C004B7843708B78837060467047DFF8ACD0A5
:10033C002B4880F30A88204D204C05E02A46151DD9
:10034C0023461C1D12681A601D4B9C42F6D31D4C93
:10035C0003E023461C1D00221A601B4B9C42F8D361
:10036C001A4BD3F88830194A43F47003C2F888301A
:10037C00164B5B6A154A43F4E0235362144B00227C
:10038C001A65124B134A9A60134B1B6803F0010356
:10039C00002B0BD1104B1B680F4A43F00103136069
:1003AC00BFF34F8F00BFBFF36F8F00BF02F042F956
:1003BC0002F066F9FEE700BFE038000800000020FC
:1003CC0004000020200000200E04002000ED00E0BE
:1003DC00000C02440000000800040340000004204C
:1003EC0000D8032080B400AF00BEFDE780B400AF9E
:1003FC0000BEFDE780B400AF00BEFDE780B400AFE7
:10040C0000BEFDE780B400AF00BEFDE780B400AFD6
:10041C0000BEFDE780B400AF00BEFDE780B400AFC6
:10042C0000BEFDE780B400AF00BEFDE780B400AFB6
:10043C0000BE00BFBD4680BC7047000080B400AF5A
:10044C00134B1B68124A23F08073136000BF104BD0
:10045C001B6803F00073002BF9D10D4B0D4A9A6207
:10046C000B4B00229A630A4B0B4A5A63084B1B68CE
:10047C00074A43F08073136000BF054B1B6803F001
:10048C000073002BF9D000BF00BFBD4680BC704785
:10049C00000C02440B0203007C02030080B400AF8A
:1004AC00084B1B68074A23F08063136000BF054BA1
:1004BC001B6803F00063002BF9D100BF00BFBD46E1
:1004CC0080BC7047000C024480B400AF084B1B6822
:1004DC00074A23F08053136000BF054B1B6803F0E1
:1004EC000053002BF9D100BF00BFBD4680BC704744
:1004FC00000C024480B400AF0B4BD3F8E0300A4A36
:10050C0023F03803C2F8E030074BD3F8E030064A4A
:10051C0023F0E063C2F8E030BFF34F8F00BF00BFA1
:10052C00BD4680BC704700BF000C024480B400AFD5
:10053C00184BD3F88830174A43F00103C2F88830BF
:10054C00144BD3F89C201349134B1343C1F89C3024
:10055C00104BD3F88C300F4A43F48F6343F00703EE
:10056C00C2F88C300B4BD3F8A4300A4A43F4422324
:10057C00C2F8A430074BD3F8A830064A43F41463EE
:10058C00C2F8A830BFF34F8F00BF00BFBD4680BC80
:10059C00704700BF000C02440440600080B400AF00
:1005AC00124B5B6A114A43F001035362BFF34F8F46
:1005BC0000BF0F4BD3F8F0300D4A43F00103C2F8E3
:1005CC00F03000BF0A4BD3F8F03003F00203002BDD
:1005DC00F8D0064B5B6A054A23F001035362BFF364
:1005EC004F8F00BF00BFBD4680BC7047000802445F
:1005FC00000C024480B400AF084B1B68074A43F45C
:10060C008033136000BF054B1B6803F40033002BD1
:10061C00F9D000BF00BFBD4680BC7047000C02443F
:10062C0080B500AF2F4B1B692E4A43F0300313618A
:10063C0000BF2C4B5B6903F00803002BF9D0FFF7CC
:10064C00D9FFFFF7ABFF284B1B6823F00F03264A9B
:10065C0043F00503136000BF234B1B6803F00F032B
:10066C00052BF9D1204B1B681F4A43F48073136090
:10067C00FFF7E4FE1D4B1B6A1C4A23F00F031362A9
:10068C001A4B1B6A23F07003184A43F040031362A1
:10069C00164B1B6A23F4E063144A43F48063136221
:1006AC00124B1B6A23F4E043104A43F48043136259
:1006BC000E4BDB690D4A43F00303D36100BF0B4BB8
:1006CC00DB6903F01803182BF9D1094B094A1A609E
:1006DC00FFF7E4FEFFF7F8FEFFF70CFFFFF726FF2E
:1006EC0000BF80BD0008024400200240000C024400
:1006FC000000002080B2E60E80B483B000AF034649
:10070C00FB80B7F90630002B0BDBFB8803F01F02D4
:10071C000649B7F906305B09012000FA02F241F8EC
:10072C00232000BF0C37BD4680BC704700E100E0C1
:10073C0080B483B000AF03463960FB80B7F9063054
:10074C00002B0ADB3B68DAB20C49B7F90630120110
:10075C00D2B20B4483F800230AE03B68DAB20849B2
:10076C00FB8803F00F03043B1201D2B20B441A7640
:10077C0000BF0C37BD4680BC704700BF00E100E0F5
:10078C0000ED00E080B588B000AFF8607A603B60A7
:10079C000B467B817B890B339BB2BB837B899B088C
:1007AC009BB2BB617B8903F00303DB007B617B891C
:1007BC00012202FA03F33B617B890F2B00F2C98003
:1007CC000023FB77FB68654A934254D0FB68634A6D
:1007DC00934253D8FB68624A934249D0FB68604A03
:1007EC0093424BD8FB685F4A93423ED0FB685D4A0C
:1007FC00934243D8FB685C4A934233D0FB685A4A15
:10080C0093423BD8FB68594A934228D0FB68574A1D
:10081C00934233D8FB68564A93421DD0FB68544A26
:10082C0093422BD8FB68534A934212D0FB68514A2F
:10083C00934223D8FB68504A934204D0FB684F4A3A
:10084C00934203D01AE00023FB7717E00123FB77D8
:10085C0014E00223FB7711E00323FB770EE0042363
:10086C00FB770BE00523FB7708E00623FB7705E01D
:10087C000723FB7702E00823FB7700BF404ABB69E4
:10088C00183352F82330FF217A6901FA02F2D2436D
:10089C003B491A40BB69183341F82320384ABB69DD
:1008AC00183352F82330F97F7A6901FA02F234498D
:1008BC001A43BB69183341F823207B6803F4702377
:1008CC00B3F5403F25D0B3F5403F2ED8B3F5803F6C
:1008DC0003D0B3F5003F0ED027E0294B1A683B69D3
:1008EC00DB43274913400B60254B5A6824493B696D
:1008FC0013434B6019E0224B1A6821493B6913439F
:10090C000B601F4B5A683B69DB431D4913404B601E
:10091C000BE01B4B1A681A493B6913430B60184BCD
:10092C005A6817493B6913434B60154BD3F8802029
:10093C0013493B691343C1F88030B7F91C3039684F
:10094C001846FFF7F5FEB7F91C301846FFF7D4FE32
:10095C0000E000BF2037BD4680BD00BF0020024232
:10096C00001C024200180242001402420010024213
:10097C00000C024200080242000002420004024243
:10098C000020024480B586B000AF8B4B7B6109E13F
:10099C007B691B683B617B695B68FB60FB681B0FB9
:1009AC007B81FB681B0D9BB203F08F033B817B8922
:1009BC005B00FB807B89012202FA03F3BB803B695D
:1009CC00DB68FA88032101FA02F2D2431A403B6930
:1009DC00DA60FB6803F00F63B3F10F6F2DD03B6946
:1009EC001B687A895200032101FA02F2D2431A40A1
:1009FC003B691A603B691B687A895200022101FA33
:100A0C0002F21A433B691A607B89DB089BB21A46D7
:100A1C003B69083253F8223039897A8902F007028F
:100A2C00920001FA02F211467A89D20892B2194365
:100A3C003B69083243F8221057E0FB6803F081034E
:100A4C00802B09D13B691B68FA88032101FA02F259
:100A5C001A433B691A6048E0FB6803F08103812B61
:100A6C0019D13B691B68FA88032101FA02F2D243BF
:100A7C001A403B691A60FB6803F47023002B34D0D6
:100A8C007B691868FB6803F470227B699B68798921
:100A9C00FFF778FE29E03B691B68FA88032101FA0D
:100AAC0002F2D2431A403B691A603B691B68FA8810
:100ABC00012101FA02F21A433B691A60FB6803F444
:100ACC004073B3F5807F05D17B891946386900F0F6
:100ADC00AAF80AE0FB6803F44073B3F5007F04D175
:100AEC007B891946386900F0AFF8FB6803F0800386
:100AFC00002B24D0FB6803F08103812B49D1FB68C8
:100B0C0003F44073B3F5807F09D13B69DB68FA8845
:100B1C00012101FA02F21A433B69DA6039E0FB6801
:100B2C0003F44073B3F5007F33D13B69DB68FA887B
:100B3C00022101FA02F21A433B69DA6029E0FB68F0
:100B4C001B0903F003033B603B699B68FA88032194
:100B5C0001FA02F2D2431A403B699A603B699A68E7
:100B6C00FB88396801FA03F31A433B699A603B69C5
:100B7C005B68BA88D2431A403B695A60FB6803F041
:100B8C000F03022B05D13B695A68BB881A433B699A
:100B9C005A603B69DA69BB881A433B69DA617B6945
:100BAC000C337B617B691B68002B7FF4F1AE00BFBB
:100BBC0000BF1837BD4680BDD835000880B483B05F
:100BCC0000AF78607B681B681A697B685B680121E1
:100BDC0001FA03F31340002B14BF01230023DBB2F3
:100BEC0018460C37BD4680BC704780B483B000AF4C
:100BFC00786039603B68002B08D07B685B68012209
:100C0C009A407B681B6892B29A6107E07B685B68CC
:100C1C0001229A407B681B6812049A6100BF0C3752
:100C2C00BD4680BC704780B483B000AF786039603B
:100C3C0001223B6802FA03F39AB27B689A6100BF07
:100C4C000C37BD4680BC704780B483B000AF786071
:100C5C00396001223B6802FA03F31A047B689A613B
:100C6C0000BF0C37BD4680BC7047000080B483B019
:100C7C0000AF03463960FB80B7F90630002B0ADB66
:100C8C003B68DAB20C49B7F906301201D2B20B4408
:100C9C0083F800230AE03B68DAB20849FB8803F0CA
:100CAC000F03043B1201D2B20B441A7600BF0C376F
:100CBC00BD4680BC704700BF00E100E000ED00E0E5
:100CCC0080B400AF044B1B680133034A136000BFB0
:100CDC00BD4680BC704700BF2000002080B582B0AC
:100CEC0000AF0E4B1B680E4AA2FB03239B09013B72
:100CFC007B600C4B00229A600A4A7B6823F07F438E
:100D0C005360084B07221A60FF214FF0FF30FFF7AA
:100D1C00ADFF00BF0837BD4680BD00BF00000020FE
:100D2C00D34D621010E000E080B485B000AF786065
:100D3C00084B1B68FB6000BF064B1A68FB68D31A94
:100D4C007A689A42F8D800BF00BF1437BD4680BC01
:100D5C00704700BF2000002080B483B000AF7860E3
:100D6C0039607B681B6823F001027B681A607B6822
:100D7C003A681A617B681B6843F001027B681A6051
:100D8C0000BF0C37BD4680BC7047000080B500AF7B
:100D9C0009490A48FFF7E0FF07490948FFF7DCFF5C
:100DAC0005490848FFF7D8FFBFF34F8F00BFBFF3CB
:100DBC006F8F00BF00BF80BD262642B0005400409C
:100DCC0000580040002C004480B487B000AFF8609D
:100DDC00B9607A60FB70224B7B61FB689B693B615D
:100DEC003B6903F01003002B04D0FB683022DA615E
:100DFC00042330E03B6903F48073002B05D0FB68BF
:100E0C004FF48072DA61022325E03B6903F400732E
:100E1C00002B05D0FB684FF40072DA6105231AE051
:100E2C003B6903F48063002B05D0FB684FF48062B0
:100E3C00DA6106230FE03A69BB6813407A689A427C
:100E4C0001D1002307E07B69013B7B617B69002BAF
:100E5C00C3D197F8203018461C37BD4680BC70476C
:100E6C00A086010080B58AB002AFF8607A601A469D
:100E7C000B46FB721346BB72FB68002B06D0BB7A89
:100E8C00002B05D197F82C30002B01D1012397E0D2
:100E9C0003230093002300224FF40041F868FFF76E
:100EAC0093FF0346FB75FB7D002B01D0FB7D87E098
:100EBC00FB7A5A00BB7A1B04134343F40053FB61C7
:100ECC0097F82C30002B03D1FB6943F00073FB61C6
:100EDC00FB68FA695A6000237B8318E002230093B5
:100EEC00012302220221F868FFF76EFF0346FB750F
:100EFC00FB7D002B01D0FB7D62E07B8B7A68134479
:100F0C001B781A46FB689A627B8B01337B83BB7A16
:100F1C009BB27A8B9A42E1D397F82C30002B3CD0C1
:100F2C0002230093012340224021F868FFF74CFF75
:100F3C000346FB75FB7D002B01D0FB7D40E0FB7A6B
:100F4C005A0097F82C301B04134343F0007343F4FE
:100F5C001053FA68536000233B8318E0022300937C
:100F6C00012304220421F868FFF72EFF0346FB75CA
:100F7C00FB7D002B01D0FB7D22E0FB68596A3B8B8B
:100F8C00BA6A1344CAB21A703B8B01333B8397F88D
:100F9C002C309BB23A8B9A42E0D30223009300236D
:100FAC0020222021F868FFF70FFF0346FB75FB7D1D
:100FBC00002B01D0FB7D03E0FB682022DA610023CB
:100FCC0018462037BD4680BD80B588B002AFF860AA
:100FDC007A601A460B46FB721346BB72FB68002BF9
:100FEC0005D07B68002B02D0BB7A002B01D10123EA
:100FFC004EE003230093002300224FF40041F868D5
:10100C00FFF7E2FE03467B757B7D002B01D07B7DD9
:10101C003EE0FB7A5A00BB7A1B04134343F0007387
:10102C0043F41053FA6853600023FB8218E0022348
:10103C000093012304220421F868FFF7C5FE034640
:10104C007B757B7D002B01D07B7D21E0FB68596A91
:10105C00FB8A7A681344CAB21A70FB8A0133FB828A
:10106C00BB7A9BB2FA8A9A42E1D302230093002303
:10107C0020222021F868FFF7A7FE03467B757B7DB5
:10108C00002B01D07B7D03E0FB682022DA6100237A
:10109C0018461837BD4680BD80B483B000AF786069
:1010AC000B46FB701346BB707B684FF480521A6082
:1010BC00BB781B0743F007027B689A607B684FF094
:1010CC008862DA60FB78012B05D17B68DB6843F41E
:1010DC00C0227B68DA607B681B6843F001027B6886
:1010EC001A6000BF0C37BD4680BC704780B487B017
:1010FC0000AFF860B9607A607B807B88002B48D0A9
:10110C007A88FB685A60FB681B6843F40072FB68C2
:10111C001A600023FB822DE0BB68002B05D0FB8AF4
:10112C00BA6813441B787B7501E0FF237B7500BF05
:10113C00FB685B6903F00203002BF9D0FB682033DA
:10114C007A7D1A7000BFFB685B6903F00103002B0A
:10115C00F9D0FB6830331B78DBB23B757B68002B16
:10116C0005D0FB8A7A6813443A7DD2B21A70FB8A96
:10117C000133FB82FA8A7B889A42CDD300BFFB688D
:10118C005B6903F00803002BF9D0FB6818229A6105
:10119C0000E000BF1C37BD4680BC704780B487B0F0
:1011AC0000AFF860B9601346FB80FB681B6843F422
:1011BC000062FB681A60FA88FB685A60FB681B685F
:1011CC0043F40072FB681A600023FB8210E000BF3E
:1011DC00FB685B6903F00203002BF9D0FB8ABA6849
:1011EC001A44FB68203312781A70FB8A0133FB8295
:1011FC00FA8AFB889A42EAD300BFFB685B6903F06A
:10120C000803002BF9D0FB6818229A6100BF1C3729
:10121C00BD4680BC704780B487B000AFF860B96041
:10122C001346FB80FB681B6823F40062FB681A60A2
:10123C00FA88FB685A60FB681B6843F40072FB6811
:10124C001A600023FB8212E000BFFB685B6903F0AD
:10125C000103002BF9D0FB6803F13002FB8AB9685B
:10126C000B441278D2B21A70FB8A0133FB82FA8AD1
:10127C00FB889A42E8D300BFFB685B6903F0080364
:10128C00002BF9D0FB6818229A6100BF1C37BD46B1
:10129C0080BC704780B483B000AF324B5B69314A7D
:1012AC0023F00103536100BF2E4B5B6903F0010374
:1012BC00002BF9D12C4B2D4A1A602B4B4FF480523A
:1012CC005A60294B2A4ADA602A4A274B1A61264B64
:1012DC000A229A60244A4FF6FC73134043F0784379
:1012EC0043F48033204A53611E4A1F4B1B6813641E
:1012FC001C4A1D4B5B6853641A4A1B4B9B689364D6
:10130C00184A194BDB68D364164A174B1B691365D3
:10131C00144A154B5B69D367134B124A1B0C1B0405
:10132C001360154B9B68144A43F400039360124BF3
:10133C009B68114A23F4701393600F4B9B680E4A01
:10134C0043F4402393600D4B9B680C4A23F00053ED
:10135C0093600A4B9B68094A43F0805393600023C7
:10136C007B6011E0D00002404000002001000940E9
:10137C00408002422400002000830242008002428E
:10138C0000BF7B6801337B607B68B3F57A7FF7DB4A
:10139C00694B9B68684A23F080439360664B9B685B
:1013AC00654A43F00043936000BF634B9B68002B7E
:1013BC00FBDB614B9B6803F00103002B0CD05E4BF5
:1013CC009B685D4A43F00203936000BF5A4B9B68D5
:1013DC0003F00103002BF9D1574BDB68564A23F07D
:1013EC001803D360544BDB68534A43F4005343F067
:1013FC000303D360504BD3F8B0304F4A23F4F0239F
:10140C0023F48073C2F8B0304B4B5B694A4A23F02B
:10141C00E0635361484B9B69474A23F0FF6323F415
:10142C00F0239361444B5B69434A43F0E06353619F
:10143C00414B9B69404A43F4603393613E4B9B693B
:10144C003D4A43F0E06393613B4B9B693A4A43F45A
:10145C00E0139361384B9B69374A43F46003936103
:10146C00354B1B6B344A23F00F031363324B1B6B4E
:10147C00314A43F0040313632F4B1B6B2E4A23F4A6
:10148C00F86313632C4B1B6B2B4A43F400731363ED
:10149C00294B1B6B284A23F4F8331363264B1B6B25
:1014AC00254A43F490331363234B1B6B224A23F4DA
:1014BC00F8031363204B1B6B1F4A43F47013136325
:1014CC001D4B1B6B1C4A23F0F85313631A4B1B6BFD
:1014DC00194A43F080531363174B5B6B164A23F086
:1014EC001F035363144B5B6B134A43F01103536399
:1014FC00114B1B68104A43F0010313600E4B9B68A1
:10150C000D4A43F00103936000BF0B4B1B6803F0C3
:10151C000103002BF9D0094B5B69084A43F0010326
:10152C005361054B9B68044A43F00403936000BF6E
:10153C000C37BD4680BC704700800242D000024090
:10154C0080B400AF024B1B881846BD4680BC704768
:10155C002400002080B400AF024B5B881846BD46C7
:10156C0080BC70472400002080B400AF024B9B88E5
:10157C001846BD4680BC70472400002080B400AFE4
:10158C00214B00229A62204B40F23712DA621E4B3A
:10159C00DB691D4A23F0807323F4E643D3611A4BB5
:1015AC00DB69194A43F4D043D361174B1B6A164AC3
:1015BC0043F480531362144BDB68134A43F4805397
:1015CC00D360114B1B68104A43F0800313600F4B20
:1015DC005B690E4A23F00103536100BF0B4B1B697F
:1015EC0003F00103002BF9D0084B3F22DA60074BC4
:1015FC00074A1A64054B56225A64044B054A1A656D
:10160C0000BFBD4680BC704700080040500002403F
:10161C00090001004008004080B483B000AF78603E
:10162C0039600F4B00225A620E4A7B68D3640D4A14
:10163C003B689BB293640B4B3F22DA60094B5B69AE
:10164C00084A43F001035361054B1B68044A43F0FD
:10165C000103136000BF0C37BD4680BC704700BF50
:10166C00000800405000024080B400AF124B5B6990
:10167C0003F00103002B01D1012318E00E4B1B6971
:10168C0003F48073002B11D00B4B4FF48072DA6093
:10169C00094B5B69084A23F001035361074B1B6834
:1016AC00064A23F001031360012300E000231846CF
:1016BC00BD4680BC704700BF50000240000800408F
:1016CC0080B400AF1C4BF9229A621B4B6322DA6286
:1016DC00194B0A225A63184B32229A63164B9A6999
:1016EC001549164B13408B61134B9B69124A43F4FB
:1016FC00D04343F0680393610F4B5B6C0E4A43F489
:10170C00004353640C4B1B6A0B4A43F011031362E6
:10171C00094B1B68084A43F080031360064B1B6897
:10172C00054A43F001031360BFF34F8F00BF00BFA6
:10173C00BD4680BC704700BF003401408C8CFEFE5F
:10174C0080B500AFFFF7BCFF00BF80BD80B400AF19
:10175C000F4B1A680E490F4B13400B600C4B5B6818
:10176C000B4A23F440535360094B9B68084A23F4FB
:10177C0040739360064B084ADA60054B1B68044AB9
:10178C0043F00903136000BFBD4680BC704700BF27
:10179C0000240044FEEBFFEF123D040080B483B044
:1017AC0000AF0346FB7100BF064BDB6903F08003FF
:1017BC00002BF9D0034AFB79936200BF0C37BD466E
:1017CC0080BC70470024004480B582B000AF7860C4
:1017DC007B68002B13D00DE07B681B780A2B02D1A1
:1017EC000D20FFF7DBFF7B685A1C7A601B781846CC
:1017FC00FFF7D4FF7B681B78002BEDD100E000BF16
:10180C000837BD4680BD000080B58AB002AFF860D5
:10181C00B9607A60FB681B0ADBB203F00F03FB773D
:10182C00FB68DBB2FB75134B9A68FB68D31ABB6180
:10183C007A68BB699A4201D9BB697B600D4B186809
:10184C000C4B1A79FB7F1343D9B27B68DBB207F1DF
:10185C0017020193BB6800930123FFF703FB0346B8
:10186C00002B02D04FF0FF3300E07B681846203786
:10187C00BD4680BD4438000880B584B000AF034637
:10188C00FB711F4BFB60FB6803F11802FB79DB0853
:10189C00DBB203F0010319461046FFF7A6F9FB680B
:1018AC0003F11002FB799B08DBB203F0010319462C
:1018BC001046FFF79AF9FB6803F10802FB795B0805
:1018CC00DBB203F0010319461046FFF78EF9FB79E2
:1018DC0003F001031946F868FFF787F9012109485D
:1018EC00FFF783F90120FFF71FFA00210548FFF7E6
:1018FC007CF90120FFF718FA00BF1037BD4680BDF8
:10190C00243800081C38000880B582B000AF0346AC
:10191C00FB71FB791B09DBB21846FFF7ADFFFB79B6
:10192C001846FFF7A9FF0220FFF7FEF900BF0837A2
:10193C00BD4680BD80B582B000AF0346FB7100216F
:10194C000648FFF752F90120FFF7EEF9FB7918462C
:10195C00FFF7DAFF00BF0837BD4680BD0C38000822
:10196C0080B582B000AF0346FB7101210648FFF73A
:10197C003CF90120FFF7D8F9FB791846FFF7C4FFB3
:10198C0000BF0837BD4680BD0C38000880B584B058
:10199C0000AF0346FB800B46BB801346FB70C02395
:1019AC00FB73BB88002B01D18023FB73FB88DAB25D
:1019BC00FB7B1343DBB21846FFF7BCFFFB781846E2
:1019CC00FFF7CEFF00BF1037BD4680BD80B584B099
:1019DC0000AF03463A60FB800B46BB803B68FB6064
:1019EC00FB887B810AE07889431C7B81FB685A1C4D
:1019FC00FA601A78BB881946FFF7C8FFFB681B789A
:101A0C00002BF0D17A89FB88D31A18461037BD46C3
:101A1C0080BD80B500AF0120FFF78CFF00BF80BDFB
:101A2C0080B500AF3220FFF77FF900211848FFF78F
:101A3C00DCF800211748FFF7D8F8164B1B68002B71
:101A4C0003D000211448FFF7D0F81420FFF76CF9ED
:101A5C000320FFF711FF0520FFF766F90320FFF7BE
:101A6C000BFF0320FFF708FF0220FFF705FF2820DC
:101A7C00FFF760FF0C20FFF75DFF0620FFF75AFF12
:101A8C000120FFF757FF0520FFF74EF900BF80BD7F
:101A9C001C3800080C3800081438000880B483B0D7
:101AAC0000AF0346FB80B7F90630002B0BDBFB883D
:101ABC0003F01F020649B7F906305B09012000FA52
:101ACC0002F241F8232000BF0C37BD4680BC7047A2
:101ADC0000E100E080B483B000AF03463960FB80C6
:101AEC00B7F90630002B0ADB3B68DAB20C49B7F9C0
:101AFC0006301201D2B20B4483F800230AE03B6893
:101B0C00DAB20849FB8803F00F03043B1201D2B28E
:101B1C000B441A7600BF0C37BD4680BC704700BF23
:101B2C0000E100E000ED00E090B583B000AF0023D1
:101B3C00FB803DE0FB88DB00214A13440021184662
:101B4C00FFF753F800233B6003E000BF3B68013311
:101B5C003B603B68092BF8D90023BB801AE0BB889B
:101B6C000333DB00164A13441846FFF727F80346E5
:101B7C00BA88F988002B0CBF01230023DCB2114872
:101B8C0013465B00134403440B4422461A70BB8873
:101B9C000133BB80BB88032BE1D9FB88DB00084AEF
:101BAC00134401211846FFF720F8FB880133FB8012
:101BBC00FB88022BBED900BF00BF0C37BD4690BDC1
:101BCC00943800085800002090B583B000AF002373
:101BDC00FB804CE00023BB8043E0FA88B98828489E
:101BEC0013465B00134403440B441B78FB70FA88C8
:101BFC00B988244813465B00134403440B441B78F8
:101C0C00BB70FB78002B0BD0BB78002B08D1FB886A
:101C1C00DBB2BA88D2B21146184600F03DFD0DE099
:101C2C00FB78002B0AD1BB78002B07D0FB88DBB2EA
:101C3C00BA88D2B21146184600F058FDFA88B98815
:101C4C00FB78002B14BF01230023DCB20D48134694
:101C5C005B00134403440B4422461A70BB880133C7
:101C6C00BB80BB88022BB8D9FB880133FB80FB8877
:101C7C00032BAFD900BF00BF0C37BD4690BD00BFD2
:101C8C00580000206400002080B500AF104B46F2D5
:101C9C00A7129A620E4B6322DA620D4B1B690C4A37
:101CAC0023F0010313610A4BDB68094A43F001037B
:101CBC00D36005214920FFF70DFF4920FFF7EEFE09
:101CCC00034B1B68024A43F00103136000BF80BD45
:101CDC000048014080B500AF084B1B6903F00103BD
:101CEC00002B09D0054B1B69044A23F00103136137
:101CFC00FFF71AFFFFF768FF00BF80BD00480140E7
:101D0C0080B500AF0C220021054801F0BBF90C2274
:101D1C000021044801F0B6F9FFF7B6FF00BF80BD03
:101D2C00580000206400002080B487B000AF034648
:101D3C000A46FB8013467B71FB881B027B617B7917
:101D4C007A6913437B61134B3B610023FB6012E008
:101D5C00FB68C3F1170301229A407B691340002BE7
:101D6C0003D07A693B6953407B613B695B083B61FB
:101D7C00FB680133FB60FB680F2BE9DD7B69002BF3
:101D8C000CBF01230023DBB218461C37BD4680BCB8
:101D9C00704700BF0080980080B584B002AFFE236E
:101DAC00FB710C4B1868FA1D002301930023009360
:101DBC0001234021FFF756F80346002B01D00023E6
:101DCC0003E00F20FEF7B0FF012318460837BD468D
:101DDC0080BD00BF5038000880B586B002AF786077
:101DEC00F3237B7307F1080300210A461A800A4685
:101DFC009A70264B186807F10D02002301930023FB
:101E0C00009301234021FFF72DF80346002B01D04E
:101E1C00002336E03220FEF787FF1C4B186807F1D1
:101E2C00080203234021FFF7CFF80346002B01D013
:101E3C00002326E03B7A1BB21B021AB27B7A1BB240
:101E4C0013431BB2FB81BA7AFB8911461846FFF784
:101E5C006BFF034683F00103DBB2002B01D00023A0
:101E6C000FE0FB8923F00303FB81FB8941F229126C
:101E7C0002FB03F39B0BA3F592530D3B7A681360A3
:101E8C00012318461037BD4680BD00BF50380008EE
:101E9C0080B586B002AF03460A46FB711346BB7190
:101EAC00FB793B73BB797B73084B186807F10C0209
:101EBC00002301930023009302235221FEF7D2FF4B
:101ECC00034618461037BD4680BD00BF5438000885
:101EDC0080B584B002AF03463960FB711346BB7109
:101EEC00074B1868FA1DBB7901933B6800930123DB
:101EFC005221FEF7B7FF034618460837BD4680BD92
:101F0C005438000880B582B000AF0023FB71FB1D74
:101F1C00012219460620FFF7DBFF0346002B02D0F7
:101F2C004FF0FF3330E0FB7903F0F003B02B02D01D
:101F3C006FF0010328E0164B1B7919460520FFF7BB
:101F4C00A7FF0346002B02D04FF0FF331CE0104BD1
:101F5C005B7943F00503DBB219460420FFF798FFC9
:101F6C000346002B02D04FF0FF330DE0062100207A
:101F7C00FFF78EFF0346002B02D04FF0FF3303E038
:101F8C000A20FEF7D1FE002318460837BD4680BD57
:101F9C005438000880B400AF034B4FF400421A6170
:101FAC0000BFBD4680BC70470020024480B586B09F
:101FBC0002AF03460A46FB711346BB71FB793B73B8
:101FCC00BB797B73084B9868074B197B07F10C02A4
:101FDC0000230193002300930223FEF743FF0346E3
:101FEC0018461037BD4680BD5C38000880B584B0FB
:101FFC0002AF03463960FB71084B9868074B197B9D
:10200C00FA1D012301933B6800930123FEF72AFF7D
:10201C00034618460837BD4680BD00BF5C38000833
:10202C0080B584B000AF20210020FFF7BFFF03462E
:10203C00002B01D0002354E014210120FFF7B6FF40
:10204C000346002B01D000234BE00023FB60274B01
:10205C00DB891B03BB60BB68002B08D0BB685A082C
:10206C00234B1344BA68B3FBF2F3013BFB60FB68F0
:10207C00022B01D80323FB60FB68FF2B01D9FF2344
:10208C00FB600023BB71BB1D19460020FFF7AEFFA0
:10209C00BB7903F04F03DBB243F03003FB71FB79E8
:1020AC0019460020FFF782FFFB68DBB21946FE20C1
:1020BC00FFF77CFFBB7943F02003DBB2194600200D
:1020CC00FFF774FF0520FEF72FFEBB7963F05F036B
:1020DC00DBB219460020FFF769FF0520FEF724FE4E
:1020EC00012318461037BD4680BD00BF5C38000880
:1020FC0040787D0180B586B002AF0346FB710B467C
:10210C00BB8013467B80FB790F2B01D90F23FB710E
:10211C00FB799B00DBB20633FB73FB7B3B72BB880A
:10212C00DBB27B72BB881B0A9BB2DBB203F00F03E2
:10213C00DBB2BB727B88DBB2FB727B881B0A9BB267
:10214C00DBB203F00F03DBB23B730E4B98680D4B05
:10215C00197B07F108020023019300230093052348
:10216C00FEF780FE0346BB730120FEF7DDFDBB7B53
:10217C00002B0CBF01230023DBB218461037BD46E1
:10218C0080BD00BF5C38000880B586B002AF034646
:10219C000A46FB801346BB80FA233B72FB88DBB2FA
:1021AC007B72FB881B0A9BB2DBB203F00F03DBB222
:1021BC00BB72BB88DBB2FB72BB881B0A9BB2DBB267
:1021CC0003F00F03DBB23B730D4B98680C4B197B80
:1021DC0007F1080200230193002300930523FEF767
:1021EC0041FE0346FB730120FEF79EFDFB7B002B9B
:1021FC000CBF01230023DBB218461037BD4680BD4F
:10220C005C38000880B500AFFFF7B8F90022002158
:10221C00002000F003F800BF80BD000080B485B042
:10222C0000AF0346FB710B46BB7113467B71002359
:10223C00FB811CE0FA89124913465B0013440B44E2
:10224C00FA791A70FA890E4913465B0013440B4451
:10225C000133BA791A70FA89094913465B001344A1
:10226C000B4402337A791A70FB890133FB81FB89A9
:10227C000F2BDFD900BF00BF1437BD4680BC7047A1
:10228C007000002080B584B000AF00BFFFF7ECF900
:10229C00034683F00103DBB2002BF7D10023FB6074
:1022AC0000237B8142E07A892D4913465B0013445D
:1022BC000B4401331B7819047A89294813465B00B7
:1022CC00134403441B781B0219437A892448134690
:1022DC005B001344034402331B780B437B601723CE
:1022EC007B721CE097F9093001229A407B681340FD
:1022FC00002B07D0FB685A1CFA601A4AC82122F836
:10230C00131006E0FB685A1CFA60164A642122F886
:10231C00131097F90930DBB2013BDBB27B7297F9F2
:10232C000930002BDEDA7B8901337B817B890F2B13
:10233C00B9D906E0FB685A1CFA600A4A002122F857
:10234C001310FB68B3F5D97FF4D3064B4FF45971D6
:10235C001846FFF761F900BF1037BD4680BD00BFBE
:10236C0070000020A000002080B584B000AF0346B0
:10237C003960FB711346BB80FB7963F07F03DBB2E2
:10238C00FB7300210C48FEF730FC0C4B1B6807F16B
:10239C000F0101221846FEF701FF084B1B68BA8893
:1023AC0039681846FEF737FF01210348FEF71DFC7C
:1023BC0000BF1037BD4680BD703800086C3800086F
:1023CC0080B584B000AF03460A46FB711346BB715F
:1023DC00FB7903F07F03DBB23B73BB797B7300218A
:1023EC000948FEF702FC094B1B6807F10C0102229D
:1023FC001846FEF7D3FE01210348FEF7F6FB00BF9B
:10240C001037BD4680BD00BF703800086C3800081E
:10241C0080B582B000AF01211948FEF7E6FB0A2017
:10242C00FEF782FC4C211220FFF7CAFF0421132077
:10243C00FFF7C6FF0023FB71FB1D012219460F207D
:10244C00FFF792FFFB796C2B01D0002313E00121E5
:10245C001220FFF7B5FF0A20FEF766FC04211220BC
:10246C00FFF7AEFF40211020FFF7AAFF4C211120EF
:10247C00FFF7A6FF012318460837BD4680BD00BFF5
:10248C007038000880B400AF034B4FF480721A61AF
:10249C0000BFBD4680BC70470020024480B400AF32
:1024AC00034B4FF40072DA6000BFBD4680BC70472E
:1024BC000020024480B584B000AF03463960FB7144
:1024CC001346BB80FB7963F07F03DBB2FB73002107
:1024DC000C48FEF78AFB0C4B1B6807F10F0101221D
:1024EC001846FEF75BFE084B1B68BA88396818461D
:1024FC00FEF791FE01210348FEF777FB00BF103772
:10250C00BD4680BD7C3800087838000880B584B0A2
:10251C0000AF03460A46FB711346BB71FB7903F00F
:10252C007F03DBB23B73BB797B7300210948FEF759
:10253C005CFB094B1B6807F10C0102221846FEF7E5
:10254C002DFE01210348FEF750FB00BF1037BD469E
:10255C0080BD00BF7C3800087838000880B582B098
:10256C0000AF01211848FEF740FB0A20FEF7DCFB08
:10257C0060216020FFF7CAFF1420FEF7D5FB302145
:10258C006220FFF7C3FF0520FEF7CEFB0023FB7193
:10259C00FB1D012219464F20FFF78CFFFB79402BC6
:1025AC0001D000230BE08C216020FFF7AFFF0F2040
:1025BC00FEF7BAFB01216120FFF7A8FF01231846A3
:1025CC000837BD4680BD00BF7C38000880B400AF22
:1025DC00034B4FF480621A6100BFBD4680BC70474C
:1025EC000020024480B584B000AF78609F23FB606C
:1025FC0000210E48FEF7F9FA0D4B186807F1080296
:10260C0007F10C010423FEF771FD01210748FEF7C9
:10261C00ECFA07F108030133032219467868FDF739
:10262C000FFE00BF1037BD4680BD00BF88380008C4
:10263C008438000880B500AFFDF7F2FFFEF74EFBC3
:10264C00FEF7A0F9FFF782F8FFF77AF8FEF79EFB8A
:10265C00022200210848FEF71FFD03220121074832
:10266C00FEF71AFDFEF716FEFFF7DAF9FFF748FB47
:10267C00FFF7C8FD00BF80BD004C01400038004092
:10268C0080B500AF0348FFF79FF800F0ABFC00BF2C
:10269C0080BD00BF1831000880B485B000AF034680
:1026AC000A46FB711346BB71FB79032B14D8BB791B
:1026BC00022B11D8FA79B9790A4813465B001344F6
:1026CC0003440B441B78FB73FB7B092B05D8FB7B6A
:1026DC00054A0121D15400E000BF1437BD4680BC2F
:1026EC00704700BFCC3800080404002080B485B0CB
:1026FC0000AF03460A46FB711346BB71FB79032BF3
:10270C0014D8BB79022B11D8FA79B9790A48134637
:10271C005B00134403440B441B78FB73FB7B092BBA
:10272C0005D8FB7B054A0021D15400E000BF1437CB
:10273C00BD4680BC704700BFCC38000804040020A4
:10274C0080B500AF0B210648FEF76DFA6420FEF74A
:10275C00EBFA0B210248FEF777FA00BF80BD00BFF1
:10276C000018024280B582B000AF0023FB80FFF757
:10277C0050F9974A00210020FFF728F9954A0121CA
:10278C000020FFF723F900BF934B9B79DBB2002BA2
:10279C00FAD1FB8840F2FF1293420AD18E4B9B79FF
:1027AC00DBB2002B00F00D81FFF7CAFF00F03EF901
:1027BC0009E1894B1B78DBB2002B15D0FFF7C0FF6A
:1027CC00864A01210020FFF701F900BF824B1B78DC
:1027DC00DBB2002BFAD1824A01210020FFF7F6F878
:1027EC00FB8843F00103FB807B4B5B78DBB2002B57
:1027FC0015D0FFF7A5FF7B4A01210020FFF7E6F873
:10280C0000BF754B5B78DBB2002BFAD1764A012105
:10281C000020FFF7DBF8FB8843F00203FB806E4BD4
:10282C009B78DBB2002B15D0FFF78AFF6F4A012192
:10283C000020FFF7CBF800BF674B9B78DBB2002B77
:10284C00FAD16B4A01210020FFF7C0F8FB8843F056
:10285C000403FB80604BDB78DBB2002B15D0FFF759
:10286C006FFF644A01210020FFF7B0F800BF5A4BFC
:10287C00DB78DBB2002BFAD15F4A01210020FFF795
:10288C00A5F8FB8843F00803FB80534B1B79DBB2A4
:10289C00002B15D0FFF754FF584A01210020FFF7F9
:1028AC0095F800BF4C4B1B79DBB2002BFAD1544A84
:1028BC0001210020FFF78AF8FB8843F01003FB800E
:1028CC00454B5B79DBB2002B15D0FFF739FF4D4A36
:1028DC0001210020FFF77AF800BF3F4B5B79DBB298
:1028EC00002BFAD1484A01210020FFF76FF8FB8832
:1028FC0043F02003FB80384BDB79DBB2002B15D087
:10290C00FFF71EFF414A01210020FFF75FF800BFCF
:10291C00314BDB79DBB2002BFAD13D4A012100208F
:10292C00FFF754F8FB8843F04003FB802A4B1B7ADB
:10293C00DBB2002B15D0FFF703FF364A0121002034
:10294C00FFF744F800BF244B1B7ADBB2002BFAD103
:10295C00314A01210020FFF739F8FB8843F080034E
:10296C00FB801D4B5B7ADBB2002B15D0FFF7E8FE2A
:10297C002A4A01210020FFF729F800BF164B5B7A89
:10298C00DBB2002BFAD1264A01210020FFF71EF8FA
:10299C00FB8843F48073FB80FB8840F2FF12934268
:1029AC007FF4F7AE1F4A00210020FFF70FF81E4AF4
:1029BC0001210020FFF70AF84FF47A70FEF7B4F902
:1029CC00E7E600BFE5E600BF0837BD4680BD00BFA7
:1029DC00283100083C310008040400205031000864
:1029EC0064310008783100088C310008A0310008EF
:1029FC00B4310008C8310008DC310008F03100089F
:102A0C0004320008183200082C320008403200084A
:102A1C0054320008683200087C32000890320008FA
:102A2C00A4320008B8320008CC32000880B586B059
:102A3C0000AF0023FB8207F10C0300221A605A60DE
:102A4C0007F1080300210A461A800A469A70FEF71D
:102A5C00E0FFD04A00210020FEF7B8FFCE4A01214A
:102A6C000020FEF7B3FF00BFCC4B9B79DBB2002BF1
:102A7C00FAD1FB8A7F2B0AD1C84B9B79DBB2002B96
:102A8C0000F0D681FFF75CFE00F0DEF9D2E1C44A1B
:102A9C0000210020FEF79AFFFFF7BAFC0346002B3B
:102AAC0017D0C04A01210020FEF790FF4FF4FA60C6
:102ABC00FEF73AF9FB8A43F00103FB82BA4A002184
:102ACC000020FEF783FFFFF749FD0346002B1FD0C4
:102ADC0006E0B64A01210020FEF778FF00BFFDE7B3
:102AEC00B34A01210020FEF771FF4FF4FA60FEF7A4
:102AFC001BF9FB8A43F00203FB82AE4A0021002043
:102B0C00FEF764FFFFF7FEF90346002B23D106E026
:102B1C00A94A01210020FEF759FF00BFFDE7A74A93
:102B2C0001210020FEF752FF4FF4FA60FEF7FCF88B
:102B3C00FB8A43F00403FB82A14A00210020FEF72C
:102B4C0045FFFFF729F93B1D1846FFF745F90346EA
:102B5C00002B22D006E09B4A01210020FEF736FF15
:102B6C0000BFFDE7984A01210020FEF72FFF4FF42C
:102B7C00FA60FEF7D9F8FB8A43F00803FB82934A0C
:102B8C0000210020FEF722FF07F108031846FFF78B
:102B9C0029FD3B7AEF2B2BD106E08D4A0121002039
:102BAC00FEF714FF00BFFDE77B7A402B20D1BB7AE8
:102BBC00152B1DD1874A01210020FEF707FF4FF48A
:102BCC00FA60FEF7B1F8FB8A43F01003FB82824AED
:102BDC0000210020FEF7FAFE07F10C03082219462B
:102BEC004FF48070FEF710FE0346002B07D11FE058
:102BFC007A4A01210020FEF7E9FE00BFFDE7784A82
:102C0C0001210020FEF7E2FE4FF4FA60FEF78CF88B
:102C1C00FB8A43F02003FB82724A00210020FEF75E
:102C2C00D5FEFFF7FDF90346002B00F0EB8006E024
:102C3C006D4A01210020FEF7C9FE00BFFDE76B4A7B
:102C4C0001210020FEF7C2FE00210020FFF79CFAB4
:102C5C0040F6FF7200210020FFF74CFA40F6FF729D
:102C6C0000210420FFF746FA40F6FF7200210820ED
:102C7C00FFF740FA40F6FF7200210C20FFF73AFAFA
:102C8C005B4A01210020FEF7A1FE4FF47A70FEF79B
:102C9C004BF800210020FFF777FA40F6FF72002175
:102CAC000120FFF727FA40F6FF7200210520FFF7FD
:102CBC0021FA40F6FF7200210920FFF71BFA40F6BB
:102CCC00FF7200210D20FFF715FA4A4A012100205E
:102CDC00FEF77CFE4FF47A70FEF726F800210020F8
:102CEC00FFF752FA40F6FF7200210220FFF702FABA
:102CFC0040F6FF7200210620FFF7FCF940F6FF7248
:102D0C0000210A20FFF7F6F940F6FF7200210E2091
:102D1C00FFF7F0F9384A01210020FEF757FE4FF477
:102D2C007A70FEF701F800210020FFF72DFA40F62B
:102D3C00FF7200210320FFF7DDF940F6FF7200213E
:102D4C000720FFF7D7F940F6FF7200210B20FFF7A1
:102D5C00D1F940F6FF7200210F20FFF7CBF9274A7B
:102D6C0001210020FEF732FE4FF47A70FDF7DCFFF4
:102D7C00234A01210020FEF729FE00210020FFF745
:102D8C0003FAFB8A43F04003FB82FB8A7F2B7FF420
:102D9C0070AE3EE0E0320008F4320008040400207B
:102DAC00083300081C330008443300083033000893
:102DBC0058330008803300086C3300089433000843
:102DCC00BC330008A8330008D0330008F8330008DF
:102DDC00E43300080C3400082034000834340008B4
:102DEC0048340008703400085C340008843400084F
:102DFC0098340008AC340008C0340008D4340008FF
:102E0C00E83400080D4A01210020FEF7DFFD00BF69
:102E1C00FDE74FF47A70FDF787FF094A0021002087
:102E2C00FEF7D4FD074A01210020FEF7CFFD20E676
:102E3C0000BF1EE61837BD4680BD00BFFC3400083D
:102E4C0010350008CC32000880B582B000AF0023EA
:102E5C00FB71FEF7DEFD334A00210020FEF7B6FDC4
:102E6C00314A01210020FEF7B1FD00BF2F4B9B79A9
:102E7C00DBB2002BFAD1FB79002B09D02B4B9B79C1
:102E8C00DBB2002B48D0FFF75BFC00F05BF845E0B1
:102E9C00274A01210020FEF799FD00220021642021
:102EAC00FFF7BCF9FFF7EEF94FF4FA60FDF73CFFC2
:102EBC00204A01210020FEF789FD00226421002018
:102ECC00FFF7ACF9FFF7DEF94FF4FA60FDF72CFFD2
:102EDC00194A01210020FEF779FD6422002100200F
:102EEC00FFF79CF9FFF7CEF94FF4FA60FDF71CFFE2
:102EFC00002200210020FFF791F9FFF7C3F90F4AD8
:102F0C0000210020FEF762FD0D4A01210020FEF792
:102F1C005DFD0123FB71AEE700BFACE700BF0837D6
:102F2C00BD4680BD24350008F4320008040400209E
:102F3C00383500084C350008603500087435000839
:102F4C00CC320008B0B500AFFEF763FD214A00217A
:102F5C000020FEF73BFD204A01210020FEF736FD44
:102F6C0000BF1E4B9B79DBB2002BFAD11C4A01210E
:102F7C000020FEF72BFD194B9B79DBB2002B09D0FF
:102F8C00FFF7DEFB002200210020FFF747F9FFF7D7
:102F9C0079F91CE0FEF7D4FA03461B099BB2DCB2AC
:102FAC00FEF7D8FA03461B099BB2DDB2FEF7DCFA3A
:102FBC0003461B099BB2DBB21A4629462046FFF793
:102FCC002DF9FFF75FF91E20FDF7AEFED3E700BF2A
:102FDC00B0BD00BF88350008F4320008040400209E
:102FEC009C35000880B500AFFEF713FD1F4A002189
:102FFC000020FEF7EBFC1E4A01210020FEF7E6FC48
:10300C0006211C48FDF720FE07211A48FDF71CFE7F
:10301C000C211948FDF718FE0D211748FDF714FE79
:10302C00164B9B79DBB2002BFAD006211148FDF729
:10303C00FAFD07210F48FDF7F6FD0C210E48FDF7B0
:10304C00F2FD0D210C48FDF7EEFDFFF779FBFFF7C4
:10305C0089FB064A00210020FEF7B8FC084A012132
:10306C000020FEF7B3FC30BFFDE700BFB035000811
:10307C00F43200080004024200180242040400204A
:10308C00C435000830B584078646034606D0A2B383
:10309C0003F8011B980702F1FF32F8D1032A26D955
:1030AC005FFA81FC0F2A0CEB0C2C0CEB0C402AD990
:1030BC0022F00F0C9C44C3E90000C3E9020010335A
:1030CC006345F8D112F00C0F02F00F0517D04FEA40
:1030DC00950C1A460CF1FF3403EB8C0C42F8040BE4
:1030EC006245FBD1043305F0030203EB840322B1E8
:1030FC001A4403F8011B9A42FBD1704630BD2A4694
:10310C00002AF5D1F9E71546E1E700BF54455354C1
:10311C002046572076312E300D0A0000544553546A
:10312C00313A202020204B455950414400000000EA
:10313C0050726573732061204B6579732E2E2E208F
:10314C000000000053573320507265737365642080
:10315C002020202000000000535733204F4B20200C
:10316C002020202020202020000000005357342055
:10317C0050726573736564202020202000000000CD
:10318C00535734204F4B202020202020202020205B
:10319C00000000005357352050726573736564202E
:1031AC002020202000000000535735204F4B2020BA
:1031BC002020202020202020000000005357362003
:1031CC00507265737365642020202020000000007D
:1031DC00535736204F4B2020202020202020202009
:1031EC0000000000535737205072657373656420DC
:1031FC002020202000000000535737204F4B202068
:10320C0020202020202020200000000053573820B0
:10321C00507265737365642020202020000000002C
:10322C00535738204F4B20202020202020202020B6
:10323C000000000053573130205072657373656481
:10324C00202020202000000053573130204F4B20ED
:10325C002020202020202020200000005357313136
:10326C0020507265737365642020202020000000BC
:10327C0053573131204F4B2020202020202020205C
:10328C00200000005357313220507265737365640F
:10329C00202020202000000053573132204F4B209B
:1032AC0020202020202020202000000054455354B2
:1032BC00313A202020205041535345440000000057
:1032CC004E657874207465737420203E20535739F2
:1032DC000000000054455354323A204943204143E6
:1032EC0043455353000000005072657373205357CD
:1032FC003920746F2052554E000000005445535431
:10330C00323A2020204C534D3644534F00000000DD
:10331C0055383A20696E6974204F4B2020202020AC
:10332C000000000055383A20207465737420464123
:10333C00494C45440000000054455354323A202077
:10334C00204C4953324D444C0000000055393A2072
:10335C00696E6974204F4B20202020200000000053
:10336C0055393A202074657374204641494C4544C4
:10337C000000000054455354323A20415044532D20
:10338C0039323530000000005531303A20696E6911
:10339C0074204F4B20202020000000005531303A83
:1033AC002074657374204641494C4544000000006C
:1033BC0054455354323A2020202020485455323161
:1033CC00000000005531313A2072656164204F4B8A
:1033DC0020202020000000005531313A2072656118
:1033EC0064204641494C4544000000005445535468
:1033FC00323A20202020573235513136000000005F
:10340C005531323A204A45444543204944204F4BDC
:10341C000000000054455354323A202041543234B9
:10342C0043313643000000005531323A2072656159
:10343C0064204641494C4544000000005531333A64
:10344C002072656164204F4B20202020000000007A
:10345C005531333A2072656164204641494C4544EC
:10346C000000000054455354323A20202050434170
:10347C0039363835000000005531343A20696E6910
:10348C0074204F4B20202020000000005531343A8E
:10349C002052454420202020202020200000000025
:1034AC005531343A20475245454E202020202020CB
:1034BC00000000005531343A2059454C4C4F5720F0
:1034CC0020202020000000005531343A20424C5579
:1034DC004520202020202020000000005531343AC7
:1034EC0020414C4C204F464620202020000000005C
:1034FC005531343A20696E6974204641494C454433
:10350C000000000054455354323A202020205041F2
:10351C00535345440000000054455354333A202083
:10352C00205247422D4C4544000000004C4432369A
:10353C003A2052454420202020202020000000006A
:10354C004C4432363A20475245454E20202020200C
:10355C00000000004C4432363A20424C55452020A5
:10356C00202020200000000054455354333A2020E2
:10357C0020202020444F4E45000000005445535459
:10358C00343A20504F5420312C322C3300000000A0
:10359C00526F746174652C206578697420535739A7
:1035AC0000000000474C2D534B2D76322D53544DBB
:1035BC0033324835000000002A2A54455354494EF2
:1035CC004720444F4E452A2A0000000000000242CA
:1035DC00810230A000000000000002422100309067
:1035EC000000000000040242320040800000000095
:1035FC00000402423200409000000000001402421D
:10360C003200401000000000001402423200400062
:10361C0000000000000C0242320040C0000000001C
:10362C00000C0242320040D00000000000040242B4
:10363C00310050D00000000000040242310050F074
:10364C0000000000000402423101F0C8000000003C
:10365C00000402423101F0A80000000000100242F8
:10366C003100502000000000001002428100505038
:10367C000000000000100242310050600000000009
:10368C00001002423101F048000000000014024218
:10369C003101F0D800000000000402423101F02892
:1036AC0000000000000802423101F0480000000058
:1036BC00001402428100F0E80000000000140242F5
:1036CC008100F0F800000000001402428100F0C8F4
:1036DC0000000000000002428100F0080000000021
:1036EC00000402420201F0680000000000040242E3
:1036FC000201F07800000000001802420201F0C83C
:10370C0000000000001802420201F0D80000000086
:10371C00000802428000F058000000000000024245
:10372C008000F04800000000000002428000F038E9
:10373C0000000000001802423102F0B80000000046
:10374C00001802420202F0A8000000000008024229
:10375C00310030700000000000080242310030607F
:10376C0000000000000C0242310220F000000000BA
:10377C00001802420200F05800000000001802423B
:10378C000200F04800000000001802420200F0386D
:10379C0000000000001802420200F02800000000A7
:1037AC00001802420201F0880000000000180242DA
:1037BC000201F07800000000001802420201F068DB
:1037CC0000000000001002428100F1F8050000002A
:1037DC00000C02428100F1A805000000000C02421E
:1037EC008100F29805000000000C02428100F18873
:1037FC0005000000000000000000000000000000B8
:10380C0000180242080000000018024207000000E5
:10381C0000180242060000000018024205000000D9
:10382C0000180242040000000018024203000000CD
:10383C00001802420200000000540040500000003A
:10384C0000080000002C0044002C00440120000063
:10385C00001802420A000000002C00444400E80357
:10386C0000380040000402420A000000003800400A
:10387C00000402420C000000004C01400010024207
:10388C000400000000010000001402420D000000C2
:10389C000004024202000000000802420400000082
:1038AC00001402420E000000001402420F0000003F
:1038BC00001402420C000000000002420000000054
:0C38CC00000102030405070809060606B7
:0838D80074C9FF7F010000002C
:0438E00000093D009E
:040000050800024CA1
:00000001FF
